:100000000C9465000C9477000C9477000C947700A6
:100010000C9477000C9477000C9477000C94770084
:100020000C9477000C9477000C9477000C94770074
:100030000C9477000C9477000C9477000C94770064
:100040000C94EA000C9477000C9477000C947700E1
:100050000C9477000C9477000C9477000C94770044
:100060000C9477000C947700C201C401D601EC0116
:10007000FA0100020602200232020000000800021B
:100080000100000304070000000000000000000061
:100090000000250028002B0000000000240027009D
:1000A0002A000404040404040404020202020202FA
:1000B000030303030303010204081020408001022C
:1000C0000408102001020408102011241FBECFEFE5
:1000D000D8E0DEBFCDBF21E0A0E0B1E001C01D92BD
:1000E000A930B207E1F70E9434010C948B020C9402
:1000F000000090E0FC01E658FF4F3491FC01EA5407
:10010000FF4F2491FC01EE55FF4FE491EE2309F4DB
:100110003BC0332339F1333091F038F43130A9F05A
:10012000323001F584B58F7D12C0373091F0383010
:10013000A1F03430B9F4809180008F7D03C08091AC
:1001400080008F77809380000DC084B58F7784BD49
:1001500009C08091B0008F7703C08091B0008F7D7F
:100160008093B000F0E0EE0FFF1FE257FF4FA59124
:10017000B4918FB7F894EC91611103C020952E23B0
:1001800001C02E2B2C938FBF08953FB7F894809118
:10019000050190910601A0910701B091080126B5D3
:1001A000A89B05C02F3F19F00196A11DB11D3FBFAF
:1001B000BA2FA92F982F8827820F911DA11DB11D3D
:1001C000BC01CD0142E0660F771F881F991F4A9539
:1001D000D1F708951F920F920FB60F9211242F930B
:1001E0003F938F939F93AF93BF9380910101909121
:1001F0000201A0910301B09104013091000123E0BC
:10020000230F2D3720F40196A11DB11D05C026E84E
:10021000230F0296A11DB11D2093000180930101BF
:1002200090930201A0930301B09304018091050112
:1002300090910601A0910701B09108010196A11DBE
:10024000B11D8093050190930601A0930701B0931F
:100250000801BF91AF919F918F913F912F910F9086
:100260000FBE0F901F901895789484B5826084BD5E
:1002700084B5816084BD85B5826085BD85B58160AA
:1002800085BD80916E00816080936E001092810028
:1002900080918100826080938100809181008160E3
:1002A00080938100809180008160809380008091A4
:1002B000B10084608093B1008091B0008160809330
:1002C000B00080917A00846080937A0080917A00F7
:1002D000826080937A0080917A00816080937A00B6
:1002E00080917A00806880937A001092C10022E0A9
:1002F00030E0F901EA54FF4F4491F901EE55FF4F08
:100300008491882399F090E0880F991FFC01E856AA
:10031000FF4FA591B491FC01E257FF4F8591949155
:100320008FB7F894EC91E42BEC938FBF2F5F3F4F86
:100330002B303105F1F660E08AE00E94790000E0A0
:1003400010E0C0E0D0E0FE013197E930F10520F483
:10035000EC5CFF4F0C94850261E082E00E94790022
:1003600061E083E00E94790061E084E00E9479000E
:1003700061E085E00E94790061E086E00E947900FA
:1003800061E059C060E043C061E082E00E94790012
:1003900061E083E00E94790060E084E00E947900DF
:1003A00061E085E00E94790061E011C061E082E0D7
:1003B0000E94790061E083E00E94790061E084E0BE
:1003C0000E94790061E085E00E94790060E086E0AB
:1003D0000E94790060E05BC060E082E00E947900EA
:1003E00061E083E00E94790061E084E00E9479008E
:1003F00060E045C061E082E00E94790060E037C0C3
:1004000061E082E00E94790060E01FC061E082E06C
:100410000E94790061E083E00E94790061E084E05D
:100420000E94790060E085E00E94790060E086E04B
:100430000E94790060E087E00E94790060E02BC0B4
:1004400061E082E00E94790061E083E00E9479002F
:1004500061E084E00E94790061E085E00E9479001B
:1004600061E011C061E082E00E94790061E083E018
:100470000E94790061E084E00E94790061E085E0FB
:100480000E94790060E086E00E94790061E087E0E8
:100490000E94790061E088E00E94790060E089E0D4
:1004A0000E9479000E94C5004B015C0188EEC82EB5
:1004B00083E0D82EE12CF12C0E94C500DC01CB0199
:1004C00088199909AA09BB09883E9340A105B1057D
:1004D00058F021E0C21AD108E108F10888EE880E30
:1004E00083E0981EA11CB11CC114D104E104F104E5
:1004F00019F72196CA30D10509F025CF011511054C
:1005000009F41FCF0E9400001CCFEE0FFF1F0590C3
:0A051000F491E02D0994F894FFCF58
:00000001FF
