:100000000C9463000C948B000C948B000C944303B1
:100010000C9443030C9443030C948B000C948B00BE
:100020000C948B000C948B000C948B000C948B0024
:100030000C948B000C948B000C948B000C948B0014
:100040000C94A1020C948B000C9411030C94EB0201
:100050000C948B000C948B000C948B000C948B00F4
:100060000C948B000C948B0000000008000201002F
:100070000003040700000000000000000000000072
:10008000250028002B0000000000240027002A0083
:1000900000000000230026002900040404040404D6
:1000A0000404020202020202030303030303010227
:1000B00004081020408001020408102001020408F6
:1000C0001020BD03D00511241FBECFEFD8E0DEBF46
:1000D000CDBF11E0A0E0B1E0E4E3FCE002C0059098
:1000E0000D92A832B107D9F722E0A8E2B1E001C031
:1000F0001D92A133B207E1F710E0C2E6D0E004C0E0
:100100002197FE010E940206C136D107C9F70E945D
:100110009F040C940D060C940000CF92DF92EF9296
:10012000FF920F931F93CF93DF936C017A018B01A2
:10013000C0E0D0E0CE15DF0589F0D8016D918D01CA
:10014000D601ED91FC910190F081E02DC601099559
:10015000892B11F47E0102C02196ECCFC701DF91FB
:10016000CF911F910F91FF90EF90DF90CF90089566
:10017000FC01538D448D252F30E0842F90E0821BAD
:10018000930B541710F0CF96089501970895FC0132
:10019000918D828D981761F0828DDF01A80FB11DBE
:1001A0005D968C91928D9F5F9F73928F90E00895E2
:1001B0008FEF9FEF0895FC01918D828D981731F09C
:1001C000828DE80FF11D858D90E008958FEF9FEFF0
:1001D0000895FC01918D228D892F90E0805C9F4FC6
:1001E000821B91098F739927089585E791E00E94FA
:1001F000E90021E0892B09F420E0822F0895FC0119
:10020000848DDF01A80FB11DA35ABF4F2C91848D9F
:1002100090E001968F739927848FA689B7892C93D4
:10022000A089B1898C9180648C93938D848D98136F
:1002300006C00288F389E02D80818F7D8083089538
:10024000EF92FF920F931F93CF93DF93EC0181E026
:10025000888F9B8D8C8D981305C0E889F9898081E2
:1002600085FD24C0F62E0B8D10E00F5F1F4F0F731E
:100270001127E02E8C8DE8120CC00FB607FCFACFC8
:10028000E889F989808185FFF5CFCE010E94FF00C2
:10029000F1CF8B8DFE01E80FF11DE35AFF4FF08285
:1002A0000B8FEA89FB898081806207C0EE89FF8914
:1002B0006083E889F98980818064808381E090E0AF
:1002C000DF91CF911F910F91FF90EF900895CF9301
:1002D000DF93EC01888D8823C9F0EA89FB8980814E
:1002E00085FD05C0A889B9898C9186FD0FC00FB620
:1002F00007FCF5CF808185FFF2CFA889B9898C9161
:1003000085FFEDCFCE010E94FF00E7CFDF91CF91B7
:10031000089580E090E0892B29F00E94F50081117A
:100320000C940000089590E0FC01E859FF4F3491CF
:10033000FC01E255FF4F2491FC01E656FF4FE4918A
:10034000EE2309F43BC0332339F1333091F038F414
:100350003130A9F0323001F584B58F7D12C03730CD
:1003600091F03830A1F03430B9F4809180008F7D65
:1003700003C0809180008F77809380000DC084B58A
:100380008F7784BD09C08091B0008F7703C08091C2
:10039000B0008F7D8093B000F0E0EE0FFF1FE458B7
:1003A000FF4FA591B4918FB7F894EC91611103C000
:1003B00020952E2301C02E2B2C938FBF08952091C2
:1003C0006A0130916B012817390771F49091680127
:1003D00080916901981741F0E0916801F0E0E85DD3
:1003E000FE4F808190E008958FEF9FEF089508956C
:1003F0001F93CF93DF93DC015C962D913C915D9729
:100400002115310539F481E090E013969C938E9389
:1004100012973DC05196ED91FC91529750969C9148
:100420005097892F80951FB75E964C915E9741FB40
:10043000772770F941FD6095F8944081772311F09A
:10044000492B01C048234083E9012197F1F748E097
:10045000508160FF02C0592B01C058235083E9012D
:100460002197F1F76695415099F7772321F0908114
:100470008923808303C08081982B90831FBF5C9663
:100480008D919C915D970197F1F721E030E0C901D2
:10049000DF91CF911F91089520916A0130916B01F6
:1004A0002817390771F4809169012091680190E063
:1004B000805C9F4F821B910960E470E00E94DA0526
:1004C000089580E090E0089520916A0130916B01D9
:1004D00028173907B9F4909168018091690198173C
:1004E00089F0E0916801F0E0E85DFE4F80812091A5
:1004F000680130E02F5F3F4F2F733327209368014F
:1005000090E008958FEF9FEF0895E0916A01F091D8
:100510006B01E817F90769F4A389B4899C9185896F
:10052000809589238C9310926B0110926A0181E06F
:10053000089580E00895089580E090E008950E9475
:1005400008061F920F920FB60F9211242F933F931C
:100550008F939F93AF93BF9380917101909172019C
:10056000A0917301B09174013091700123E0230FC9
:100570002D3720F40196A11DB11D05C026E8230FDB
:100580000296A11DB11D209370018093710190937B
:100590007201A0937301B093740180916C019091EA
:1005A0006D01A0916E01B0916F010196A11DB11D69
:1005B00080936C0190936D01A0936E01B0936F01D5
:1005C000BF91AF919F918F913F912F910F900FBE4F
:1005D0000F901F9018951F920F920FB60F92112433
:1005E0002F933F934F935F936F937F938F939F933B
:1005F000AF93BF93EF93FF9385E791E00E94FF00D5
:10060000FF91EF91BF91AF919F918F917F916F91EA
:100610005F914F913F912F910F900FBE0F901F90C0
:1006200018951F920F920FB60F9211242F938F934C
:100630009F93EF93FF93E0918501F0918601808174
:10064000E0918B01F0918C0182FD12C0908180912C
:100650008E018F5F8F7320918F01821751F0E0918F
:100660008E01F0E0EB58FE4F958F80938E0101C014
:100670008081FF91EF919F918F912F910F900FBEED
:100680000F901F9018951F920F920FB60F92112482
:100690002F933F934F935F936F937F938F939F938A
:1006A000AF93BF93EF93FF93E0916A01F0916B01D9
:1006B000309709F451C0968DA685B785858591FF41
:1006C00004C09C91892329F447C09C91892309F097
:1006D00043C0A389B4899C918589809589238C9393
:1006E000868997890197F1F7608D718DA685B78509
:1006F000558538E020E0CB010197F1F7822F90E09B
:1007000095958795282F4C91452309F02068315005
:1007100091F7868D81FD20958091690190E0019689
:100720008F73992730916801381749F0A0916901BA
:10073000B0E0A85DBE4F2C938093690103C0868D05
:100740008160868F828D938D0197F1F7A389B4899B
:100750009C918589892B8C93FF91EF91BF91AF91EB
:100760009F918F917F916F915F914F913F912F91C9
:100770000F900FBE0F901F901895CF93DF9310929C
:1007800078011092770188EE93E0A0E0B0E08093CA
:10079000790190937A01A0937B01B0937C0124E0CE
:1007A00031E0309376012093750125EC30E03093F1
:1007B00082012093810124EC30E030938401209366
:1007C000830120EC30E0309386012093850121ECF9
:1007D00030E0309388012093870122EC30E03093A1
:1007E0008A012093890126EC30E030938C0120931C
:1007F0008B0110928E0110928F0110929001109235
:100800009101109215021092140280931602909397
:100810001702A0931802B093190286E191E0909319
:100820001302809312021092290210922802109251
:100830002B0210922A0210922D0210922C0210927A
:100840002F0210922E02609130026E7F6D7F6093B6
:1008500030026695617081E0682783E00E94930111
:10086000E1EBF0E02491EDE9F0E08491882399F048
:1008700090E0880F991FFC01EA57FF4FA591B491B2
:10088000FC01E458FF4F859194918FB7F894EC9157
:10089000E22BEC938FBFE1EBF0E0E491E0932202D6
:1008A000EDE9F0E0E491F0E0EE0FFF1FE458FF4FB8
:1008B000859194919093240280932302E0EBF0E0E1
:1008C0002491ECE9F0E084918823C1F090E0880F56
:1008D000991FFC01EA57FF4FC591D491FC01E458E0
:1008E000FF4FA591B4919FB7F8948881E22FE095CE
:1008F0008E2388838C91E823EC939FBF80913002F4
:1009000081FD04C061E082E00E94930182E0809357
:100910001E02E0EBF0E0E491E0931F02ECE9F0E06E
:10092000E491F0E0EE0FFF1FE057FF4F85919491A7
:100930009093210280932002DF91CF9108957894C3
:1009400084B5826084BD84B5816084BD85B58260D4
:1009500085BD85B5816085BD80916E008160809385
:100960006E001092810080918100826080938100EE
:1009700080918100816080938100809180008160FE
:10098000809380008091B10084608093B100809159
:10099000B00081608093B00080917A008460809381
:1009A0007A0080917A00826080937A0080917A0048
:1009B000816080937A0080917A00806880937A00C9
:1009C0001092C100E0918501F091860182E0808360
:1009D000E0918101F09182011082E0918301F09118
:1009E00084018FEC808310928D01E0918901F09158
:1009F0008A0186E08083E0918701F09188018081FF
:100A000080618083E0918701F09188018081886016
:100A10008083E0918701F0918801808180688083E4
:100A2000E0918701F091880180818F7D8083109211
:100A30002D0210922C0210922B0210922A02109278
:100A40002902109228028DE991E090932F02809361
:100A50002E0290911E02963108F057C02DEB30E027
:100A600030932902209328022BE931E030932B02A6
:100A700020932A022CE231E030932D0220932C02A5
:100A800020916800983050F031E09E3008F430E05A
:100A900081E001C0880F3A95EAF701C084E0822B1B
:100AA00080936800983038F09E3040F0963148F0DE
:100AB00020E030E008C02DE630E005C02BE630E055
:100AC00002C02CE630E030932602209325029830B5
:100AD00030F481E001C0880F9A95EAF70EC0292F03
:100AE00030E09E3018F42850310902C02E503109F0
:100AF00081E001C0880F2A95EAF780932702809150
:100B00002E0290912F020197F1F780912C02909183
:100B10002D02892B21F180916A0190916B0122E0D5
:100B200082319207E1F0009711F00E9485028091D6
:100B300030028E7F8093300210926901109268011A
:100B400082E192E090936B0180936A01E09125022B
:100B5000F0912602908180912702892B808382E187
:100B600092E00E944C0218161906BCF482E192E051
:100B70000E946402E0917501F09176010190F0818C
:100B8000E02D682F85E791E0099542E050E064E2AE
:100B900071E085E791E00E948D000E948901DFCF1E
:100BA00086E191E0909313028093120282E192E039
:100BB0000C94850297FB072E16F4009407D077FD5E
:100BC00009D00E94EE0507FC05D03EF49095819572
:100BD0009F4F0895709561957F4F0895AA1BBB1B89
:100BE00051E107C0AA1FBB1FA617B70710F0A61B2D
:100BF000B70B881F991F5A95A9F780959095BC014E
:100C0000CD010895EE0FFF1F0590F491E02D09949A
:100C100081E090E0F8940C940D0610E0C2E6D0E07C
:100C200004C0FE010E9402062196C336D107C9F70F
:040C3000F894FFCF66
:100C34000000000020018D00B8006701E900C70032
:100C4400DB0000000000F8018D009C02F7014C025B
:080C54006402DF010D0A00003B
:00000001FF
