:100000000C9463000C948B000C948B000C9465038F
:100010000C9465030C9465030C948B000C948B007A
:100020000C948B000C948B000C948B000C948B0024
:100030000C948B000C948B000C948B000C948B0014
:100040000C94C3020C948B000C9433030C940D039A
:100050000C948B000C948B000C948B000C948B00F4
:100060000C948B000C948B0000000008000201002F
:100070000003040700000000000000000000000072
:10008000250028002B0000000000240027002A0083
:1000900000000000230026002900040404040404D6
:1000A0000404020202020202030303030303010227
:1000B00004081020408001020408102001020408F6
:1000C0001020DF03E20511241FBECFEFD8E0DEBF12
:1000D000CDBF11E0A0E0B1E0E8E5FCE002C0059092
:1000E0000D92AE33B107D9F722E0AEE3B1E001C023
:1000F0001D92A734B207E1F710E0C2E6D0E004C0D9
:100100002197FE010E941406C136D107C9F70E944B
:10011000C1040C941F060C940000CF92DF92EF9262
:10012000FF920F931F93CF93DF936C017A018B01A2
:10013000C0E0D0E0CE15DF0589F0D8016D918D01CA
:10014000D601ED91FC910190F081E02DC601099559
:10015000892B11F47E0102C02196ECCFC701DF91FB
:10016000CF911F910F91FF90EF90DF90CF90089566
:10017000FC01538D448D252F30E0842F90E0821BAD
:10018000930B541710F0CF96089501970895FC0132
:10019000918D828D981761F0828DDF01A80FB11DBE
:1001A0005D968C91928D9F5F9F73928F90E00895E2
:1001B0008FEF9FEF0895FC01918D828D981731F09C
:1001C000828DE80FF11D858D90E008958FEF9FEFF0
:1001D0000895FC01918D228D892F90E0805C9F4FC6
:1001E000821B91098F73992708958BE891E00E94F3
:1001F000E90021E0892B09F420E0822F0895FC0119
:10020000848DDF01A80FB11DA35ABF4F2C91848D9F
:1002100090E001968F739927848FA689B7892C93D4
:10022000A089B1898C9180648C93938D848D98136F
:1002300006C00288F389E02D80818F7D8083089538
:10024000EF92FF920F931F93CF93DF93EC0181E026
:10025000888F9B8D8C8D981305C0E889F9898081E2
:1002600085FD24C0F62E0B8D10E00F5F1F4F0F731E
:100270001127E02E8C8DE8120CC00FB607FCFACFC8
:10028000E889F989808185FFF5CFCE010E94FF00C2
:10029000F1CF8B8DFE01E80FF11DE35AFF4FF08285
:1002A0000B8FEA89FB898081806207C0EE89FF8914
:1002B0006083E889F98980818064808381E090E0AF
:1002C000DF91CF911F910F91FF90EF900895CF9301
:1002D000DF93EC01888D8823C9F0EA89FB8980814E
:1002E00085FD05C0A889B9898C9186FD0FC00FB620
:1002F00007FCF5CF808185FFF2CFA889B9898C9161
:1003000085FFEDCFCE010E94FF00E7CFDF91CF91B7
:10031000089580E090E0892B29F00E94F50081117A
:100320000C940000089590E0FC01E859FF4F3491CF
:10033000FC01E255FF4F2491FC01E656FF4FE4918A
:10034000EE2309F43BC0332339F1333091F038F414
:100350003130A9F0323001F584B58F7D12C03730CD
:1003600091F03830A1F03430B9F4809180008F7D65
:1003700003C0809180008F77809380000DC084B58A
:100380008F7784BD09C08091B0008F7703C08091C2
:10039000B0008F7D8093B000F0E0EE0FFF1FE458B7
:1003A000FF4FA591B4918FB7F894EC91611103C000
:1003B00020952E2301C02E2B2C938FBF08952091C2
:1003C0008001309181012817390771F490917E01E5
:1003D00080917F01981741F0E0917E01F0E0E25CAE
:1003E000FE4F808190E008958FEF9FEF089508956C
:1003F0001F93CF93DF93DC015C962D913C915D9729
:100400002115310539F481E090E013969C938E9389
:1004100012973DC05196ED91FC91529750969C9148
:100420005097892F80951FB75E964C915E9741FB40
:10043000772770F941FD6095F8944081772311F09A
:10044000492B01C048234083E9012197F1F748E097
:10045000508160FF02C0592B01C058235083E9012D
:100460002197F1F76695415099F7772321F0908114
:100470008923808303C08081982B90831FBF5C9663
:100480008D919C915D970197F1F721E030E0C901D2
:10049000DF91CF911F9108952091800130918101CA
:1004A0002817390771F480917F0120917E0190E037
:1004B000805C9F4F821B910960E470E00E94EC0514
:1004C000089580E090E008952091800130918101AD
:1004D00028173907B9F490917E0180917F01981710
:1004E00089F0E0917E01F0E0E25CFE4F8081209196
:1004F0007E0130E02F5F3F4F2F73332720937E0123
:1005000090E008958FEF9FEF0895E0918001F091C2
:100510008101E817F90769F4A389B4899C91858959
:10052000809589238C93109281011092800181E043
:10053000089580E00895089580E090E00895CF93B5
:10054000DF93009779F0FC0101900020E9F73197E3
:10055000AF01481B590BBC018BE891E00E948D0054
:10056000EC0102C0C0E0D0E042E050E064E271E0A3
:100570008BE891E00E948D008C0F9D1FDF91CF9141
:1005800008950E941A061F920F920FB60F9211241F
:100590002F933F938F939F93AF93BF938091870146
:1005A00090918801A0918901B0918A0130918601D2
:1005B00023E0230F2D3720F40196A11DB11D05C0A6
:1005C00026E8230F0296A11DB11D2093860180937A
:1005D000870190938801A0938901B0938A0180914B
:1005E000820190918301A0918401B09185010196CF
:1005F000A11DB11D8093820190938301A09384017A
:10060000B0938501BF91AF919F918F913F912F91B1
:100610000F900FBE0F901F9018951F920F920FB65C
:100620000F9211242F933F934F935F936F937F9378
:100630008F939F93AF93BF93EF93FF938BE891E0DA
:100640000E94FF00FF91EF91BF91AF919F918F9119
:100650007F916F915F914F913F912F910F900FBEBE
:100660000F901F9018951F920F920FB60F921124A2
:100670002F938F939F93EF93FF93E0919B01F091C2
:100680009C018081E091A101F091A20182FD12C044
:1006900090818091A4018F5F8F732091A5018217B3
:1006A00051F0E091A401F0E0E557FE4F958F809363
:1006B000A40101C08081FF91EF919F918F912F91B3
:1006C0000F900FBE0F901F9018951F920F920FB6AC
:1006D0000F9211242F933F934F935F936F937F93C8
:1006E0008F939F93AF93BF93EF93FF93E09180011C
:1006F000F0918101309709F451C0968DA685B78598
:10070000858591FF04C09C91892329F447C09C9161
:10071000892309F043C0A389B4899C918589809578
:1007200089238C93868997890197F1F7608D718D64
:10073000A685B785558538E020E0CB010197F1F714
:10074000822F90E095958795282F4C91452309F0AD
:100750002068315091F7868D81FD209580917F0131
:1007600090E001968F73992730917E01381749F0F8
:10077000A0917F01B0E0A25CBE4F2C9380937F01DB
:1007800003C0868D8160868F828D938D0197F1F7EE
:10079000A389B4899C918589892B8C93FF91EF91D2
:1007A000BF91AF919F918F917F916F915F914F9189
:1007B0003F912F910F900FBE0F901F901895CF93E0
:1007C000DF9310928E0110928D0188EE93E0A0E0ED
:1007D000B0E080938F0190939001A0939101B0932A
:1007E000920124E031E030938C0120938B0125ECC1
:1007F00030E0309398012093970124EC30E030935F
:100800009A012093990120EC30E030939C012093D1
:100810009B0121EC30E030939E0120939D0122EC5E
:1008200030E03093A00120939F0126EC30E030931C
:10083000A2012093A1011092A4011092A50110928F
:10084000A6011092A70110922B0210922A02809307
:100850002C0290932D02A0932E02B0932F0286E1DA
:1008600091E0909329028093280210923F02109207
:100870003E021092410210924002109243021092E6
:1008800042021092450210924402609146026E7F2D
:100890006D7F609346026695617081E0682783E012
:1008A0000E949301E1EBF0E02491EDE9F0E0849106
:1008B000882399F090E0880F991FFC01EA57FF4FB9
:1008C000A591B491FC01E458FF4F859194918FB7A5
:1008D000F894EC91E22BEC938FBFE1EBF0E0E49124
:1008E000E0933802EDE9F0E0E491F0E0EE0FFF1F55
:1008F000E458FF4F8591949190933A028093390286
:10090000E0EBF0E02491ECE9F0E084918823C1F081
:1009100090E0880F991FFC01EA57FF4FC591D491D1
:10092000FC01E458FF4FA591B4919FB7F8948881DA
:10093000E22FE0958E2388838C91E823EC939FBF70
:100940008091460281FD04C061E082E00E94930133
:1009500082E080933402E0EBF0E0E491E093350232
:10096000ECE9F0E0E491F0E0EE0FFF1FE057FF4FFD
:10097000859194919093370280933602DF91CF91C5
:100980000895789484B5826084BD84B5816084BD07
:1009900085B5826085BD85B5816085BD80916E001D
:1009A000816080936E00109281008091810082604E
:1009B000809381008091810081608093810080918B
:1009C00080008160809380008091B100846080937A
:1009D000B1008091B00081608093B00080917A0076
:1009E000846080937A0080917A00826080937A009C
:1009F00080917A00816080937A0080917A0080688B
:100A000080937A001092C100E0919B01F0919C01CB
:100A100082E08083E0919701F09198011082E0914B
:100A20009901F0919A018FEC80831092A301E091DB
:100A30009F01F091A00186E08083E0919D01F091FB
:100A40009E01808180618083E0919D01F0919E01F3
:100A5000808188608083E0919D01F0919E0180817A
:100A600080688083E0919D01F0919E0180818F7D5F
:100A7000808310924302109242021092410210921F
:100A8000400210923F0210923E028DE991E0909355
:100A900045028093440290913402963108F057C089
:100AA0002DEB30E030933F0220933E022BE931E002
:100AB00030934102209340022CE231E03093430214
:100AC0002093420220916800983050F031E09E302F
:100AD00008F430E081E001C0880F3A95EAF701C0E0
:100AE00084E0822B80936800983038F09E3040F08C
:100AF000963148F020E030E008C02DE630E005C037
:100B00002BE630E002C02CE630E030933C0220932C
:100B10003B02983030F481E001C0880F9A95EAF7E3
:100B20000EC0292F30E09E3018F42850310902C041
:100B30002E50310981E001C0880F2A95EAF7809391
:100B40003D0280914402909145020197F1F7809116
:100B5000420290914302892B21F180918001909172
:100B6000810122E088329207E1F0009711F00E94A3
:100B70008502809146028E7F8093460210927F010B
:100B800010927E0188E292E090938101809380012F
:100B9000E0913B02F0913C02908180913D02892BD3
:100BA000808380918001909181018852924019F454
:100BB00087E291E002C087E391E00E949F020E94D9
:100BC0008901EFCF86E191E090932902809328027A
:100BD00088E292E00C94850297FB072E16F40094AD
:100BE00007D077FD09D00E94000607FC05D03EF42F
:100BF000909581959F4F0895709561957F4F0895C9
:100C0000AA1BBB1B51E107C0AA1FBB1FA617B70732
:100C100010F0A61BB70B881F991F5A95A9F780954E
:100C20009095BC01CD010895EE0FFF1F0590F49142
:100C3000E02D099481E090E0F8940C941F0610E0F8
:100C4000C2E6D0E004C0FE010E9414062196C3361D
:080C5000D107C9F7F894FFCFAA
:100C58000000000020018D00B8006701E900C7000E
:100C6800DB0000000000F8018D009C02F7014C0237
:100C78006402DF010D0A006974206973206C6973CE
:0E0C880074656E696E67004572726F720000CF
:107E0000112484B714BE81FFF0D085E080938100F7
:107E100082E08093C00088E18093C10086E0809377
:107E2000C20080E18093C4008EE0C9D0259A86E02C
:107E300020E33CEF91E0309385002093840096BBD3
:107E4000B09BFECF1D9AA8958150A9F7CC24DD24C4
:107E500088248394B5E0AB2EA1E19A2EF3E0BF2EE7
:107E6000A2D0813461F49FD0082FAFD0023811F036
:107E7000013811F484E001C083E08DD089C08234E0
:107E800011F484E103C0853419F485E0A6D080C0E4
:107E9000853579F488D0E82EFF2485D0082F10E0AE
:107EA000102F00270E291F29000F111F8ED06801E7
:107EB0006FC0863521F484E090D080E0DECF843638
:107EC00009F040C070D06FD0082F6DD080E0C81688
:107ED00080E7D80618F4F601B7BEE895C0E0D1E017
:107EE00062D089930C17E1F7F0E0CF16F0E7DF06D8
:107EF00018F0F601B7BEE89568D007B600FCFDCFD4
:107F0000A601A0E0B1E02C9130E011968C91119780
:107F100090E0982F8827822B932B1296FA010C0160
:107F200087BEE89511244E5F5F4FF1E0A038BF0790
:107F300051F7F601A7BEE89507B600FCFDCF97BE46
:107F4000E89526C08437B1F42ED02DD0F82E2BD052
:107F50003CD0F601EF2C8F010F5F1F4F84911BD097
:107F6000EA94F801C1F70894C11CD11CFA94CF0C13
:107F7000D11C0EC0853739F428D08EE10CD085E9AC
:107F80000AD08FE07ACF813511F488E018D01DD067
:107F900080E101D065CF982F8091C00085FFFCCF94
:107FA0009093C60008958091C00087FFFCCF809118
:107FB000C00084FD01C0A8958091C6000895E0E648
:107FC000F0E098E1908380830895EDDF803219F02E
:107FD00088E0F5DFFFCF84E1DECF1F93182FE3DFCA
:107FE0001150E9F7F2DF1F91089580E0E8DFEE27F6
:047FF000FF270994CA
:027FFE00040479
:0400000300007E007B
:00000001FF
