:100000000C945C000C946E000C946E000C946E00CA
:100010000C946E000C946E000C946E000C946E00A8
:100020000C946E000C946E000C946E000C946E0098
:100030000C946E000C946E000C946E000C946E0088
:100040000C94E1000C946E000C946E000C946E0005
:100050000C946E000C946E000C946E000C946E0068
:100060000C946E000C946E00000000080002010069
:100070000003040700000000000000000000000072
:10008000250028002B0000000000240027002A0083
:10009000040404040404040402020202020203032E
:1000A0000303030301020408102040800102040836
:1000B000102001020408102011241FBECFEFD8E049
:1000C000DEBFCDBF21E0A0E0B1E001C01D92A930AC
:1000D000B207E1F70E942B010C94B0020C940000CF
:1000E00090E0FC01E859FF4F3491FC01EC55FF4FC3
:1000F0002491FC01E057FF4FE491EE2309F43BC04B
:10010000332339F1333091F038F43130A9F0323003
:1001100001F584B58F7D12C0373091F03830A1F0F1
:100120003430B9F4809180008F7D03C080918000CD
:100130008F77809380000DC084B58F7784BD09C010
:100140008091B0008F7703C08091B0008F7D809345
:10015000B000F0E0EE0FFF1FE458FF4FA591B491FF
:100160008FB7F894EC91611103C020952E2301C044
:100170002E2B2C938FBF08953FB7F89480910501E3
:1001800090910601A0910701B091080126B5A89BA6
:1001900005C02F3F19F00196A11DB11D3FBFBA2F19
:1001A000A92F982F8827820F911DA11DB11DBC0179
:1001B000CD0142E0660F771F881F991F4A95D1F73E
:1001C00008951F920F920FB60F9211242F933F9311
:1001D0008F939F93AF93BF93809101019091020100
:1001E000A0910301B09104013091000123E0230F9D
:1001F0002D3720F40196A11DB11D05C026E8230F5F
:100200000296A11DB11D20930001809301019093DE
:100210000201A0930301B093040180910501909124
:100220000601A0910701B09108010196A11DB11D21
:100230008093050190930601A0930701B0930801F4
:10024000BF91AF919F918F913F912F910F900FBED2
:100250000F901F901895CF93DF93CDB7DEB7C05A9C
:10026000D1090FB6F894DEBF0FBECDBF789484B528
:10027000826084BD84B5816084BD85B5826085BDA2
:1002800085B5816085BD80916E00816080936E0030
:100290001092810080918100826080938100809122
:1002A00081008160809381008091800081608093D3
:1002B00080008091B10084608093B1008091B00093
:1002C00081608093B00080917A00846080937A008E
:1002D00080917A00826080937A0080917A008160B8
:1002E00080937A0080917A00806880937A001092DF
:1002F000C10022E030E0F901EC55FF4F4491F901D3
:10030000E057FF4F8491882399F090E0880F991F60
:10031000FC01EA57FF4FA591B491FC01E458FF4F4F
:10032000859194918FB7F894EC91E42BEC938FBF67
:100330002F5F3F4F2B303105F1F660E08AE00E94DD
:100340007000CE0101966C0180EAF60111928A9547
:10035000E9F781E090E09A8389839C838B839E8375
:100360008D8398878F839A8789879C878B879C8BBF
:100370008B8B9E8B8D8B9AA389A39CA38BA398A711
:100380008FA39AA789A79EA78DA79AAB89AB9CAB91
:100390008BAB9EAB8DAB98AF8FAB9EAF8DAF2596E1
:1003A0009FAF8EAF259727969FAF8EAF27972D963D
:1003B0009FAF8EAF2D972F969FAF8EAF2F976396DF
:1003C0009FAF8EAF639767969FAF8EAF6797699623
:1003D0009FAF8EAF69976D969FAF8EAF6D976F96FB
:1003E0009FAF8EAF6F97A3969FAF8EAFA397A79641
:1003F0009FAF8EAFA797A9969FAF8EAFA997AB96E9
:100400009FAF8EAFAB97AD969FAF8EAFAD97AF96C8
:100410009FAF8EAFAF97E3969FAF8EAFE397E59612
:100420009FAF8EAFE597E7969FAF8EAFE797CF5719
:10043000DF4F99838883C158D040CD57DF4F9983D0
:100440008883C358D040CB57DF4F99838883C558E2
:10045000D040C957DF4F99838883C758D040C757CA
:10046000DF4F99838883C958D040C557DF4F9983A0
:100470008883CB58D040C357DF4F99838883CD58AA
:10048000D040CF56DF4F99838883C159D040CD5695
:10049000DF4F99838883C359D040CB56DF4F998370
:1004A0008883C559D040C956DF4F99838883C7597F
:1004B000D040C556DF4F99838883CB59D040C3566F
:1004C000DF4F99838883CD59D04076011E01F1EA30
:1004D0002F0E311C00E010E0F801EE0FFF1FEE0DB3
:1004E000FF1D608182E0800F0E9470000F5F1F4F30
:1004F0000830110589F70E94BC004B015C0188EEB1
:10050000482E83E0582E612C712C0E94BC00DC0127
:10051000CB0188199909AA09BB09883E9340A10516
:10052000B10558F021E0421A51086108710888EEBF
:10053000880E83E0981EA11CB11C41145104610473
:10054000710419F7F0E1EF0EF11CE214F30411F657
:1005500080E090E0892B09F4F7CE0E940000F4CEF1
:04056000F894FFCF3D
:00000001FF
